:020000040800F2
:1000000090060020090300080D57000875560008E7
:10001000095700084D0E00083D5F00080000000071
:100020000000000000000000000000004157000830
:100030007D0E000800000000175700084357000815
:1000400023030008230300082303000823030008F8
:1000500023030008230300082303000823030008E8
:1000600023030008230300082303000823030008D8
:1000700023030008230300082303000823030008C8
:1000800023030008230300082303000823030008B8
:1000900023030008230300082303000823030008A8
:1000A0002303000823030008230300082303000898
:1000B0002303000823030008230300082303000888
:1000C0002303000823030008230300082303000878
:1000D0002303000823030008230300082303000868
:1000E0002303000823030008230300082303000858
:1000F0002303000823030008230300082303000848
:100100002303000823030008230300082303000837
:100110002303000823030008230300082303000827
:100120002303000823030008230300082303000817
:10013000DFF810D000F034FE00480047DD6400080E
:10014000AFF300809006002080EC200B7047C0ECDD
:10015000200B704790EC200B7047D0EC200B7047C1
:1001600085460D98DDF838E00F9B5DF8042B20E9FB
:100170000C009DE8FE1F854601BD4DF808ED0DF110
:10018000080E4DF804ED2DE9FF1F002102B4694669
:1001900081B000F058FDDDF840E012B0704700007B
:1001A000886B0000207000004DF808ED0DF1080E7E
:1001B0004DF804ED2DE9FF1F002102B4694681B01E
:1001C00000F0A8BD704700BF40BA704740BA704702
:1001D00040BA704740BA704740BA704740BA70475B
:1001E00040BA704740BA704740BA704740BA70474B
:1001F00040BA704740BA704740BA704740BA70473B
:1002000040BA704740BA704740BA704740BA70472A
:1002100040BA704740BA7047C0BA7047C0BA70471A
:10022000C0BA7047C0BA7047C0BA7047C0BA70470A
:10023000C0BA7047C0BA7047C0BA7047C0BA7047FA
:10024000C0BA7047C0BA7047C0BA7047C0BA7047EA
:10025000C0BA7047C0BA7047C0BA7047C0BA7047DA
:10026000C0BA7047C0BA70474FEA3000704700000C
:100270004FEA3000704700004FEA3000704700003E
:100280004FEA3000704700004FEA3000704700002E
:100290004FEA3000704700004FEA3000704700001E
:1002A0004FEA3000704700004FEA3000704700000E
:1002B0004FEA3000704700004FEA300070470000FE
:1002C0004FEA3000704700004FEA300070470000EE
:1002D0004FEA3000704700004FEA300070470000DE
:1002E0004FEA3000704700004FEA300070470000CE
:1002F0004FEA3000704700004FEA300070470000BE
:100300004FEA300070470000064880470648004723
:10031000FEE7FEE7FEE7FEE7FEE7FEE7FEE7FEE7B5
:10032000FEE7FEE75558000831010008012300F000
:100330003DB8002300F03AB8202A04DB203A21FA25
:1003400002F00021704721FA02F3D040C2F12002EE
:100350009140084319467047D2B201E000F8012BE2
:10036000491EFBD270470022F6E710B513460A4635
:1003700004461946FFF7F0FF204610BD017A51B937
:10038000417A89B1491E417241680A1D426009687B
:10039000016004210172C9B2491E017201680A0E8E
:1003A0000902016010467047B02070472DE9FF4DEB
:1003B0008CB05FEA000B4FF0000016460D46079028
:1003C0000990059008900DD0BBF1010F0AD0BBF148
:1003D000020F01D0002203E2A86BA864E86B04902E
:1003E0002C6C0FE095F85000C007E86C049078D1B1
:1003F0000F9818B104980068C0F30740049901EB06
:10040000800442E00F98022811D02788002F68D07E
:100410006088241D00F00102394662F35F0161B17A
:10042000012934D002297DD00329EBD12FE127689F
:10043000002FECD060680834ECE7BBF1000F24D04B
:10044000A96C002301EB000806A9009130460F2299
:10045000194600F0D6FA0698804516D808EB070131
:10046000814212D9A96CA963201D0499C5E90F1016
:100470002846AFF300800028ACD020680F2240F35C
:100480001E0004443046049423E0241DBAE7BBF167
:10049000000F27D006A90023009130460D221946EF
:1004A00000F0AFFA0698296A88426ED1E86AA04245
:1004B0006BD1206804A940F31E000444002300917E
:1004C00030460F220494194600F084FA3046002288
:1004D000049504A900230091194600F07BFA2246F6
:1004E0003CE2D6E0A96C002301EB00080AA90091C8
:1004F00030460F22194600F084FA0A987F1E804584
:1005000043D808EB070181423FD96768B81C0ED079
:10051000781C0ED0206806ABC20F39462846AFF3D0
:10052000008000E033E078B302281DD004E002220E
:1005300056E105F15800069004A9002300913046C9
:100540000D22194600F05DFA0498EC6228620698C4
:1005500068622068022140F31E0002192846FFF756
:1005600031FE3A4680215FE004A900230091304625
:100570000D22194600F045FA0498EC6228620698AC
:10058000A86205F12800E3E7FFE708343AE72168AD
:10059000069121F00048BBF1000F10D00AA90023FA
:1005A000009130460D22194600F02BFA0A98296A6C
:1005B000884240D1E86AA0423DD101203CE0A96CCC
:1005C000401E01EB000A0AA90023009130460F22C9
:1005D000194600F016FA0A9882453AD80AEB070144
:1005E000814236D904F1040A00270AE06B46002252
:1005F0002846DAF80010AFF3008020B90AF1040AA7
:100600007F1C4745F2D3474523D104A9002300911D
:1006100030460D22194600F0F4F90498EC62286285
:100620000020D24A022168622846FFF7CBFD06204F
:1006300010B0BDE8F08D002058B10020C5E90A8057
:1006400004202863201D68630698404506D10120D8
:1006500007900698404515D1002014E004EB88006F
:10066000002250F8041F134641F31E010C1804A980
:10067000009130460495114600F0ACF930460F2247
:10068000049464E1042000EB88000444FDE60122A8
:10069000A6E00498006801900498001D02900F984D
:1006A00008B30198010C000401908DF80D10022090
:1006B0008DF80C0001A8FFF761FE0446B0281AD09F
:1006C0003F2C41D800F03F01042000EB810706A930
:1006D0000D240023009130462246194600F091F97E
:1006E0000698384442E000208DF80D000198000281
:1006F00001900320DCE70998B0B905980028C6D01E
:1007000004A8002300900E221946304600F079F923
:100710000499059105A90023009130460F2219463E
:1007200000F058F9012008900798002870D00022A6
:1007300004A90091304613460495114600F04AF989
:100740000898002878D0FEE07F2C19D800F03F01EF
:10075000042000EB810706A90D24002300913046F8
:100760002246194600F04DF90698C01B049004A8D3
:100770000023009022461946304600F02BF999E7F5
:100780008F2C1AD80007040C01A8FFF7F7FD54EAD4
:1007900000143FF4CCAE002322461946304600F048
:1007A00047F908B103221BE0200401D5012009907C
:1007B0006004E4D5012005907CE79F2C16D800F05A
:1007C0000F020D2A0BD00F2A09D006A90023009191
:1007D0000D243046194600F014F90698C6E70422A5
:1007E00001212846FFF7EEFC092021E7AF2C10D8A5
:1007F00004F007000121401C81400A01103A200743
:1008000003D5012042F4804205900023194658E0A8
:10081000AAE0B72C35D8B12C0FD0B22C15D0B32804
:10082000DDD101A8FFF7AAFD00F00F0100F0F000F4
:10083000491C41EA00322BE073E001A8FFF79EFD5E
:100840000200CCD00F2AE0D9C9E700273C4601A816
:10085000FFF794FD00F07F01A1400F43000601D592
:10086000E41DF4E706A90D2400230091304622463A
:10087000194600F0C6F8069800EB870000F50170F5
:1008800074E7BF2C07D800F00700401C40F400229A
:100890000123012115E0C72C25D809D101A8FFF7B4
:1008A0006DFD02009BD00F2A99D80023042108E097
:1008B000C62C0DD000F00700401C40F4202203237A
:1008C0001946304600F0B4F800283FF458AF69E705
:1008D00001A8FFF753FD00F00F0100F0F000491CE4
:1008E00041EA0032EBE7C82C0BD0C92C09D0CF2C41
:1008F000AAD9D72CA8D800F00700401C40F4002249
:100900000DE001A8FFF73AFD00F00F01491C00F0CF
:10091000F00041EA0032C82C01D102F58012052313
:10092000B7E704A8002300900F221946304600F0D4
:1009300068F80499059105A90023009130460E221C
:10094000194600F047F8094930460F22049104A9DE
:1009500000230091194600F03DF8044A032128467F
:10096000FFF730FC072063E6082061E60000000086
:100970002DE9F05F0546002092469B4688460646D4
:10098000814640241BE02846414647462246FFF761
:10099000D3FC53465A46C01A914110D3114618460B
:1009A000224600F00FFA2D1A67EB01084F46224647
:1009B0000120002100F006FA17EB00094E41201E2D
:1009C000A4F10104DFDC484631462A464346BDE82F
:1009D000F09F000010B5029C31B101290DD0032910
:1009E0000BD004290BD108E04BB90F2A07D800EB34
:1009F000820021684160002010BD012010BD02204E
:100A000010BD10B5029C31B101290DD003290BD0C6
:100A100004290BD108E04BB90F2A07D800EB82005C
:100A200040682060002010BD012010BD022010BDD4
:100A30002DE9F04DC0B09846044631B1012918D0D7
:100A4000032979D0042979D176E0B8F1000F75D166
:100A500090B2231D00F40052A16B05E0C50701D040
:100A600020C91D6040081B1D0028F7D1F2BBA163FF
:100A70005EE0150C96B2102D01D2012000E000209E
:100A80008246A819102801D9012700E00027B8F1F3
:100A9000010F03D0B8F1050F50D101E03FBB01E0D9
:100AA00020284BD84FF0000BBAF1000F08D0207867
:100AB000012805D184F800B004F1480080EC200B37
:100AC00047B16078012805D184F801B004F1C8006D
:100AD000C0EC200BBAF1000F02D0684680EC200B6E
:100AE00020A883460FB1C0EC200B01E020E025E0F8
:100AF0006B46A06B08E0014603EBC502D1E900C1DB
:100B0000C2E900C108306D1C761EF4D24146B8F12E
:100B1000010F00D0002100EB8100A063BAF1000FAB
:100B200002D0184690EC200B17B15846D0EC200BA1
:100B3000002040B0BDE8F08D0120FAE70220F8E780
:100B400010B50468904801F10802436803444FF06F
:100B5000FF30934204D0136843F31E03134400E0B4
:100B600003460A6842F31E021144A14202D89C4285
:100B700001D3012010BD002010BD33B504468248CA
:100B800081B0824D0168426801441044401AC2108D
:100B900002980823801E029002A8009500F021F917
:100BA0007B49002370B1026842F31E020244A26432
:100BB0004268012A09D0002A0ADA001DE0640120F7
:100BC00020650BE00422636115E00222636112E0FC
:100BD00042F31E02001D1044C4E91303E26C1068C6
:100BE000002815DAC0F3036050B101280AD00228AA
:100BF0000CD0012263612046FFF7E4FA09203EBDD4
:100C0000644800E06448606100203EBD6348FAE744
:100C100040F31E001044F6E70C4605462846216CBA
:100C2000FFF7ABFF50B9206C28616B69224629465B
:100C300001209847072803D00828EFD0AFF30080A1
:100C4000201DFFF78DFAF0B50446C068D3B00E46FC
:100C5000012768B3582005F055FC05002AD014225E
:100C600004F10C0105F10C0000F0DEF8182204F18B
:100C7000200105F1200000F0D7F804F1380005F15B
:100C8000380C0FC88CE80F00E560F06B3064402230
:100C9000311D01A800F0C8F88DF800708DF80170C2
:100CA00012AF32AD20461099FFF767FFD0B910E0C0
:100CB000E760EAE7052236492046FFF783FA05E0B8
:100CC0009DF8010010B92846D0EC200B53B0092044
:100CD000F0BD63696A46214600209847062809D07E
:100CE0000828DFD09DF800000028E9D1384690ECB4
:100CF000200BE5E79DF8000010B9384690EC200B7A
:100D00009DF8010010B92846D0EC200B3146204652
:100D1000FFF782FF0546006908640C460A466B69C6
:100D2000294602209847072803D0082804D0AFF3AB
:100D30000080201DFFF714FA21462846FFF76CFFBC
:100D400070B5C1680546D1B101291AD00C461422EC
:100D500005F10C000C3100F067F8182204F12001B5
:100D600005F1200000F060F804F1380038350FC8B4
:100D700085E80F002046BDE8704005F087BBAFF363
:100D800000800020E86070BDA0010008410B000851
:100D9000010000FF330300082D03000800000000DD
:100DA000064C074D06E0E06840F0010394E80700B8
:100DB00098471034AC42F6D3FFF7BEF9086D00082F
:100DC000286D0008202A04DB203A00FA02F10020F6
:100DD00070479140C2F1200320FA03F31943904079
:100DE00070472DE9F05F994615460F4683464FF050
:100DF000FF36DDF828A011E0A819441009FB0470A3
:100E000080460146584652469047002802D004DAF0
:100E1000254603E04046BDE8F09F2646A5EB0600C8
:100E20000128E9DC0020F6E740EA01039B0703D034
:100E300009E008C9121F08C0042AFAD203E011F819
:100E4000013B00F8013B521EF9D2704700BFFEE79C
:100E500030B590F840500124AC40C56B6C6004681C
:100E600063604468102C04D10468A2600468E160E7
:100E700003E00468A1600468E26030BD704772B6A8
:100E800000BFFEE70021074AD1610749096941F027
:100E90000401054A11611146096941F040011161DF
:100EA0007047000070000020002002402DE9F0474C
:100EB000044600254FF6FF763746B046B14600F0AF
:100EC000F5F80443E6B2C4F30727C4F307484FEA32
:100ED00014694CF2503000F0E3F90546002D4FD173
:100EE0002949C86101F0C0FB0546002D48D12748BB
:100EF000006940F0100025490861FF2E09D0244800
:100F000000883043224908804CF2503000F0C8F984
:100F100005466DB9FF2F0BD01D48801C0088384353
:100F20001B49891C08804CF2503000F0B9F9054685
:100F30007DB9B8F1FF0F0CD01548001D008840EABC
:100F400008001349091D08804CF2503000F0A8F940
:100F500005467DB9B9F1FF0F0CD00D48801D008802
:100F600040EA09000A49891D08804CF2503000F01F
:100F700097F905460548006920F01000034908610B
:100F80002846BDE8F08700007000002000200240E5
:100F900008F8FF1F2DE9F047044600254FF6FF76BD
:100FA0003746B046B14600F081F8C0432043C44301
:100FB000E6B2C4F30727C4F307484FEA14694CF2BA
:100FC000503000F06DF90546002D4FD12949C86118
:100FD00001F04AFB0546002D48D12748006940F042
:100FE000100025490861FF2E09D0244800883040B0
:100FF000224908804CF2503000F052F905466DB994
:10100000FF2F0BD01D48801C008838401B49891CCD
:1010100008804CF2503000F043F905467DB9B8F134
:10102000FF0F0CD01548001D008800EA0800134986
:10103000091D08804CF2503000F032F905467DB9A8
:10104000B9F1FF0F0CD00D48801D008800EA09009F
:101050000A49891D08804CF2503000F021F90546FC
:101060000548006920F01000034908612846BDE8E2
:10107000F0870000700000200020024008F8FF1FE9
:10108000A5200021044AD26902F00201022901D1FF
:10109000002000E0A5207047002002400248C069FF
:1010A000C0F3820070470000002002400148006A3F
:1010B000704700000020024070B504460D4601262E
:1010C0004CF2503000F0ECF80646A6B900200B496F
:1010D000C8610B48006940F010000949086125808B
:1010E0004CF2503000F0DCF806460548006920F06C
:1010F000100003490861304670BD000070000020F8
:101100000020024070B5054600244CF2503000F03B
:10111000C7F804465CBB00201649C8611648006940
:1011200040F02000144908610846006940F0400082
:1011300008614CF2503000F0B3F804460E480069E4
:1011400020F020000C4908618CB90846006940F085
:1011500010000861094805804CF2503000F0A0F8FA
:1011600004460548006920F0100003490861204644
:1011700070BD0000700000200020024000F8FF1F3A
:1011800070B5044600254CF2503000F089F8054651
:10119000BDB900200C49C8610C48006940F010003E
:1011A0000A49086144F08800094908804CF250302F
:1011B00000F076F805460548006920F01000034964
:1011C0000861284670BD0000700000200020024029
:1011D00002F8FF1F0021074AD1610749096941F060
:1011E0000201054A116111464861096941F0400157
:1011F0001161704770000020002002400022054B62
:10120000DA61054A126942F00102034B1A6101805A
:1012100070470000700000200020024000201E499E
:10122000C96801F0100139B11C49C96941F00201D6
:101230001A4AD16140F010001749C96801F0040151
:1012400039B11649C96941F00101144AD16140F030
:1012500004001149C96901F0010169B10F49C96967
:1012600041F004010D4AD16100BF0B49C96921F069
:101270000101094AD16100BF00BF40F2011188425B
:1012800006D10549C96921F00101034AD16101E094
:101290000149C86000BF7047002002407000002074
:1012A00070B5044601F0E8FE054609E0601C38B15F
:1012B00024B101F0E1FE401BA04201D9032070BD22
:1012C0001248C06800F001000028EFD10F48C06844
:1012D00000F0200020B100BF20200C49C86000BFF2
:1012E0000A48C06800F0100048B90848C06900F01A
:1012F000010020B90548C06800F0040018B1FFF7EC
:101300008DFF0120DBE70020D9E70000002002402C
:101310000348406820F00100014948607047000020
:10132000002004E00348406820F0040001494860C0
:1013300070470000002004E00348406820F00200ED
:101340000149486070470000002004E003484068FD
:1013500040F001000149486070470000002004E0AF
:101360000348406840F004000149486070470000AD
:10137000002004E00348406840F002000149486052
:1013800070470000002004E00146002291F821008F
:10139000022808D00420886300BF002081F82000C4
:1013A00000BF012070470868006820F00E000B683D
:1013B00018600868006820F001000B68186091F858
:1013C000403001209840CB6B5860012081F821000B
:1013D00000BF002081F8200000BF1046E2E70000B7
:1013E00070B50446002594F82100022803D004209B
:1013F000A0630125C1E02068006820F00E0021688C
:1014000008602068006820F00100216808605C49DD
:101410002068884252D95A4978392068884201D1D7
:10142000012047E0564964392068884201D11020E4
:1014300040E0534950392068884201D1801539E095
:101440004F493C392068884201D1801432E04C4930
:1014500028392068884202D14FF480302AE0484978
:1014600014392068884202D14FF4801022E04449A8
:101470002068884201D140041CE04249206888422B
:1014800001D1012016E03F4914312068884201D182
:1014900010200FE03B4928312068884201D1801597
:1014A00008E038493C312068884201D1801401E0CD
:1014B0004FF480303349091F086051E030497839D2
:1014C0002068884201D1012047E02D496439206815
:1014D000884201D1102040E02949503920688842D3
:1014E00001D1801539E026493C392068884201D174
:1014F000801432E0224928392068884202D14FF412
:1015000080302AE01E4914392068884202D14FF405
:10151000801022E01A492068884201D140041CE072
:1015200018492068884201D1012016E0154914317C
:101530002068884201D110200FE01249283120682C
:10154000884201D1801508E00E493C31206888426C
:1015500001D1801401E04FF480300949803948609E
:10156000012084F8210000BF002084F8200000BF83
:10157000606B10B12046616B8847284670BD000043
:101580008000024008040240014609B9012070476A
:101590000868006820F001000A68106000200A68EE
:1015A00010600A6850600A6890600A68D060174A44
:1015B000086890420BD2164A0868801A1422B0FBC1
:1015C000F2F08000086412480838C8630AE00F4A45
:1015D0000868801A1422B0FBF2F0800008640B48FF
:1015E0000838C86391F8402001209040CA6B5060D1
:1015F00000208862C86208634863886381F821001C
:1016000000BF81F8200000BF00BFC0E7080402400F
:10161000080002400146886B7047014691F821009E
:101620007047000070B50446E06B056820680668E6
:1016300094F84010042088402840002875D006F017
:1016400004000028FAD02068006800F0200028B9C3
:101650002068006820F0040021680860D5492068EF
:10166000884254D9D34978392068884201D104206E
:1016700049E0D04964392068884201D1402042E0E5
:10168000CC4950392068884201D100153BE0C94956
:101690003C392068884202D14FF4804033E0C5498C
:1016A00028392068884202D14FF480202BE0C149BC
:1016B00014392068884202D14FF4800023E0BD49EC
:1016C0002068884201D1C0041DE0BB4920688842DF
:1016D00001D1042017E0B84914312068884201D1B3
:1016E000402010E0B44928312068884201D100151B
:1016F00009E0B1493C312068884202D14FF4804072
:1017000001E04FF48020AC49091F086054E0A9496A
:1017100078392068884201D104204AE0A54964391B
:101720002068884202D1402043E04CE0A149503972
:101730002068884201D100153BE09E493C39206871
:10174000884202D14FF4804033E09A49283920681A
:10175000884202D14FF480202BE09649143920684A
:10176000884202D14FF4800023E0924920688842E9
:1017700001D1C0041DE090492068884201D10420B5
:1017800017E08D4914312068884201D1402010E0D3
:10179000894928312068884201D1001509E086492D
:1017A0003C312068884202D14FF4804001E04FF480
:1017B0008020804980394860E06A002802D02046B5
:1017C000E16A8847F4E094F84010022088402840FD
:1017D000002871D006F002000028FAD020680068C6
:1017E00000F0200040B92068006820F00A0021685D
:1017F0000860012084F821006E492068884254D98D
:101800006C4978392068884201D1022049E0694951
:1018100064392068884201D1202042E0654950396E
:101820002068884201D140153BE062493C3920687C
:10183000884202D14FF4005033E05E4928392068D5
:10184000884202D14FF400302BE05A491439206805
:10185000884202D14FF4001023E0564920688842A4
:1018600001D180041DE054492068884201D1022042
:1018700017E0514914312068884201D1202010E03E
:101880004D4928312068884201D1401509E04A4974
:101890003C312068884202D14FF4005001E04FF4FF
:1018A00000304549091F086054E0424978392068F2
:1018B000884202D102204AE057E03E49643920685C
:1018C000884201D1202042E03A49503920688842BC
:1018D00001D140153BE037493C392068884202D1AC
:1018E0004FF4005033E0334928392068884202D150
:1018F0004FF400302BE02F4914392068884202D180
:101900004FF4001023E02B492068884201D1800465
:101910001DE029492068884201D1022017E02649AC
:1019200014312068884201D1202010E0224928315A
:101930002068884201D1401509E01F493C312068E8
:10194000884202D14FF4005001E04FF400301949B1
:101950008039486000BF002084F8200000BFA06AE2
:1019600030B32046A16A884722E094F8401008204E
:1019700088402840E0B106F00800C8B1206800683F
:1019800020F00E002168086094F840100120884083
:10199000E16B48600120A06384F8210000BF0020B3
:1019A00084F8200000BF206B10B12046216B8847CF
:1019B00070BD000080000240080402400146002281
:1019C00009B9012070471E4B086898420BD21D4B85
:1019D0000868C01A1423B0FBF3F0800008641948AB
:1019E0000838C8630AE0164B0868C01A1423B0FB15
:1019F000F3F08000086412480838C863022081F8B8
:101A000021000868026843F6F0708243D1E90103BF
:101A10001843CB6818430B6918434B6918438B690B
:101A20001843CB69184302430868026000208863AA
:101A3000012081F82100002081F8200000BFC1E7CB
:101A400008040240080002402DE9F04104460E4619
:101A500015464FF0000894F82100022809D0042010
:101A6000A06300BF002084F8200000BF0120BDE873
:101A7000F0812068006800F0200020B14FF48070F1
:101A8000A0630120F3E7002E52D1F9492068884273
:101A900001D102204AE0F64914312068884201D180
:101AA000202043E0F24928312068884201D14015C6
:101AB0003CE0EF493C312068884202D14FF40050AD
:101AC00034E0EB4950312068884202D14FF40030B5
:101AD0002CE0E74964312068884202D14FF40010BD
:101AE00024E0E34978312068884201D180041DE078
:101AF000E0492068884201D1022017E0DD49143115
:101B00002068884201D1202010E0DA49283120687D
:101B1000884201D1401509E0D6493C31206888420D
:101B200002D14FF4005001E04FF40030074651E07D
:101B3000CF492068884201D104204AE0CC491431C1
:101B40002068884201D1402043E0C94928312068FB
:101B5000884201D100153CE0C5493C3120688842EB
:101B600002D14FF4804034E0C149503120688842AE
:101B700002D14FF480202CE0BD49643120688842B6
:101B800002D14FF4800024E0B949783120688842BE
:101B900001D1C0041DE0B7492068884201D104206A
:101BA00017E0B44914312068884201D1402010E088
:101BB000B04928312068884201D1001509E0AD49BB
:101BC0003C312068884202D14FF4804001E04FF45C
:101BD0008020074601F050FA8046DBE0A4497831C6
:101BE0002068884255D9A34808380068A04A21686F
:101BF000914201D108214AE09D4A14322168914264
:101C000001D1802143E09A4A28322168914201D1D2
:101C1000C9143CE0964A3C322168914202D14FF40B
:101C2000004134E0924A50322168914202D14FF48F
:101C300000212CE08E4A64322168914202D14FF497
:101C4000000124E08A4A78322168914201D10905D5
:101C50001DE0884A2168914201D1082117E0854A98
:101C600014322168914201D1802110E0814A28324A
:101C70002168914201D1C91409E07E4A3C322168B1
:101C8000914202D14FF4004101E04FF4002108409D
:101C900054E0774808380068754A2168914201D1BC
:101CA00008214AE0724A14322168914201D1802110
:101CB00043E06F4A28322168914201D1C9143CE0C7
:101CC0006B4A3C322168914202D14FF4004134E02A
:101CD000674A50322168914202D14FF400212CE032
:101CE000634A64322168914202D14FF4000124E03A
:101CF0005F4A78322168914201D109051DE05D4AB1
:101D00002168914201D1082117E05A4A1432216812
:101D1000914201D1802110E0564A28322168914237
:101D200001D1C91409E0534A3C322168914202D1E1
:101D30004FF4004101E04FF40021084098B194F8BD
:101D4000401001208840E16B4860A06B40F001002A
:101D5000A063012084F8210000BF002084F8200047
:101D600000BF012083E6681CA0B12DB101F084F909
:101D7000A0EB0800A8420DD9A06B40F02000A063A2
:101D8000012084F8210000BF002084F8200000BF5B
:101D900001206CE6364978312068884204D93548FC
:101DA00008380068384003E0314808380068384097
:101DB00000283FF413AF002E72D12D4978312068EE
:101DC000884259D92A492068884201D102204AE034
:101DD000274914312068884201D1202043E024495A
:101DE00028312068884201D140153CE020493C312F
:101DF0002068884202D14FF4005034E01C49503131
:101E00002068884202D14FF400302CE01849643138
:101E10002068884202D14FF4001024E01449783140
:101E20002068884201D180041DE012492068884260
:101E300001D1022017E00F4914312068884201D1F6
:101E4000202010E00B4928312068884201D140153C
:101E500009E008493C312068884202D14FF4005023
:101E600001E04FF400300349091F086059E0000009
:101E7000080002400804024086492068884201D1D7
:101E800002204BE0834914312068884201D1202090
:101E900044E0804928312068884202D140153DE065
:101EA00043E07C493C312068884202D14FF4005025
:101EB00034E0784950312068884202D14FF4003034
:101EC0002CE0744964312068884202D14FF400103C
:101ED00024E0704978312068884201D180041DE0F7
:101EE0006D492068884201D1022017E06A49143107
:101EF0002068884201D1202010E0674928312068FD
:101F0000884201D1401509E063493C31206888428C
:101F100002D14FF4005001E04FF400305D49083920
:101F20004860012084F82100ADE05A4978312068EA
:101F3000884254D957492068884201D104204AE098
:101F4000544914312068884201D1402043E051496E
:101F500028312068884201D100153CE04D493C31D0
:101F60002068884202D14FF4804034E04949503122
:101F70002068884202D14FF480202CE0454964312A
:101F80002068884202D14FF4800024E04149783132
:101F90002068884201D1C0041DE03F492068884282
:101FA00001D1042017E03C4914312068884201D156
:101FB000402010E0384928312068884201D10015BE
:101FC00009E035493C312068884202D14FF4804015
:101FD00001E04FF480203049091F086053E02D498B
:101FE0002068884201D104204AE02A49143120683F
:101FF000884201D1402043E02649283120688842A8
:1020000001D100153CE023493C312068884202D1CF
:102010004FF4804034E01F4950312068884202D19B
:102020004FF480202CE01B4964312068884202D1A3
:102030004FF4800024E0174978312068884201D1AC
:10204000C0041DE014492068884201D1042017E033
:10205000114914312068884201D1402010E00E4916
:1020600028312068884201D1001509E00A493C3135
:102070002068884202D14FF4804001E04FF4802074
:1020800004490839486000BF002084F8200000BFE0
:1020900000BFECE4080002400804024010B503460B
:1020A000002400BF93F82000012801D1022010BDB8
:1020B000012083F8200000BF93F82100012812D1ED
:1020C00031B1012906D0022906D0032908D105E043
:1020D0009A6207E0DA6205E01A6303E05A6301E0FE
:1020E000012400BF00E0012400BF002083F820008D
:1020F00000BF2046DBE72DE9F04104460D461646B9
:102100001F464FF0000800BF94F82000012802D1BC
:102110000220BDE8F081012084F8200000BF94F87F
:102120002100012817D1022084F821000020A0639B
:102130002068006820F00100216808603B463246B4
:1021400029462046FEF784FE2068006840F0010022
:102150002168086006E000BF002084F8200000BF6E
:102160004FF002084046D4E72DE9F04104460D4601
:1021700016461F464FF0000800BF94F820000128C3
:1021800002D10220BDE8F081012084F8200000BFC8
:1021900094F8210001282CD1022084F8210000208D
:1021A000A0632068006820F00100216808603B46B9
:1021B000324629462046FEF74BFEE06A30B12068E1
:1021C000006840F00E00216808600BE0206800689D
:1021D00020F00400216808602068006840F00A00D0
:1021E000216808602068006840F0010021680860EC
:1021F00006E000BF002084F8200000BF4FF0020876
:102200004046BFE70246002300BF92F820000128A5
:1022100001D102207047012082F8200000BF92F80F
:10222000210001281BD1052916D2DFE801F00306A1
:10223000090C0F000020906210E00020D0620DE039
:10224000002010630AE00020506307E00020906245
:10225000D0621063506301E0012300BF00E001235E
:1022600000BF002082F8200000BF1846D2E700001F
:1022700010B54FF0FF300649086100200861401E8C
:10228000C8600020C86001F054F8002010BD0000B4
:102290000010024070B5044600F0EEFE06462546EA
:1022A000681C10B104480078054400BF00F0E4FE4B
:1022B000801BA842FAD370BD1400002030B501463F
:1022C00009B9012030BD087800F01F02012000FA92
:1022D00002F3164800689843144D2860281D0068D2
:1022E00098432D1D2860086800F00070E0B1281D9B
:1022F000006898432D1D2860281D006898432D1DF7
:102300002860086800F0C060B0F1C06F0CD10848C8
:10231000950850F825409007050F0F20A8408443EA
:102320000348950840F825400020CBE70004014011
:102330000800014010B50A46037803F01F0401238A
:1023400003FA04F1014B196010BD000014040140B0
:10235000027802F01F03012202FA03F1014A116020
:10236000704700001004014070B5044604B109B97B
:10237000012070BD20680860087800F01F0301206C
:1023800000FA03F21D480068104010B101204860B7
:1023900001E0002048601948001D0068104018B195
:1023A000486840F00200486000208860C860086803
:1023B00000F0007000B3114808300068104008B108
:1023C000012088600D480C300068104018B1886802
:1023D00040F002008860086800F0C060B0F1C06F93
:1023E0000AD107489E0850F826509807000F25FA92
:1023F00000F000F00F00C8600020BAE700040140C0
:102400000800014002460AB901207047116000200F
:10241000FBE7000030B502460D46147804F01F01BA
:10242000012404FA01F3034C24681C4024FA01F04F
:1024300030BD00001404014070B50446207800F05F
:102440001F01012000FA01F50548006800EA0506B1
:102450002EB103480560606808B16068804770BDB0
:102460001404014010B50346002009B95A6001E088
:10247000012000BF00BF10BD70B5044604B109B90A
:10248000012070BD08682060087800F01F0301205B
:1024900000FA03F2086800F00070C8B3087A00F090
:1024A000010028B12E48006810432D4E306004E032
:1024B0002B48006890432A4E3060087A00F00200F2
:1024C00038B12748001D00681043254E361D306086
:1024D00006E02348001D00689043214E361D306001
:1024E000086800F0C060B0F1C06F11D11D489E08AF
:1024F00050F826509807060F0F20B04085439E07DE
:10250000360FC868B040054316489E0840F826506C
:10251000087900F0010038B111480838006810430C
:102520000F4E083E306006E00D48083800689043C2
:102530000B4E083E3060087900F0020038B10848C0
:10254000001F00681043064E361F306006E0044846
:10255000001F00689043024E361F3060002090E755
:1025600008040140080001402DE9F04104460E46F0
:102570000127002500BF2648007E012802D1022045
:10258000BDE8F08101202249087600BF20680228BA
:1025900013D14CF25030FEF783FE90BB0120FEF7C2
:1025A00071FC4CF25030FEF77BFE0746194800697B
:1025B00020F004001749086123E04CF25030FEF788
:1025C0006FFEF0B94FF0FF303060A56812E028468A
:1025D000FEF700FE4CF25030FEF762FE07460D4853
:1025E000006920F002000B4908610FB1356007E077
:1025F00005F50065D4E9021001EBC020A842E6D839
:1026000000BF00BF00200249087600BF3846B7E788
:10261000700000200020024070B5044600251048DC
:10262000007808B1012070BD0E48006940F4A05048
:102630000C4908612068022805D1094908706068C2
:10264000FEF720FC09E0012005490870E0684860B9
:10265000A0688860A068FEF7BDFD2846E3E700009B
:10266000700000200020024070B5A5250124FEF76F
:1026700007FDC5B24CF25030FEF712FE0446ECB92D
:1026800000200F49C8610F48006940F020000D4943
:1026900008610846006940F0400008614CF2503083
:1026A000FEF7FEFD04460748006920F020000549BA
:1026B00008611CB92846FEF725FD0446204670BD7A
:1026C000700000200020024010B504460720206062
:1026D000FEF7ECFCA060FEF7D3FC2074FEF7DEFCF6
:1026E000607410BD01460020064A914204D1064A9A
:1026F000D269C2F3872003E0034AD269C2F387405C
:102700007047000004F8FF1F0020024070B5044627
:10271000012500BF2E48007E012801D1022070BD96
:1027200001202B49087600BF207800F0010098B105
:102730006068012804D1A068FEF72CFC054603E080
:10274000A068FEF7B3FB054635B100BF0020204965
:10275000087600BF2846E2E7207800F00200022851
:102760000BD1207CFEF7CEFC054635B100BF002022
:102770001749087600BF2846D1E7207800F004000A
:1027800004280BD1607CFEF7FBFC054635B100BF89
:1027900000200F49087600BF2846C0E7207800F0E7
:1027A000080008280CD1217E6069FEF785FC0546EB
:1027B00035B100BF00200649087600BF2846AEE7C5
:1027C00000BF00200249087600BF2846A7E70000A6
:1027D00070000020704700000148C0697047000089
:1027E0007000002010B500245A48C06800F01000A6
:1027F00020B95848C06800F0040068B156488468A1
:102800004FF0FF3054498860FEF708FD204600F085
:10281000D3F80020504908704E48C06800F02000EE
:10282000002828D000BF20204A49C86000BF4A487D
:10283000007800287ED048480078012827D14648F3
:102840004068401E4449486008464068A0B10846B8
:1028500084682046FFF7BEFF3F48806800F50064AB
:102860003D4884603B48006920F002003949086116
:102870002046FEF7AFFC5DE04FF0FF3004463649DE
:102880008860002008702046FFF7A4FF52E032481D
:10289000007802280CD12F48006920F004002D494F
:1028A00008610020FFF796FF00202B49087041E0E7
:1028B00029484068401E2849486008464068D8B109
:1028C00008468068801C88600846846808694969F1
:1028D000000C40EA0140090C1F4A106151611D487B
:1028E000006920F001001B4908611069526981B23A
:1028F0002046FEF783FC1DE017480078032804D12A
:1029000015498868FFF766FF0EE013480078042831
:1029100005D111498968881EFFF75CFF04E00E4964
:102920008968881FFFF756FF4FF0FF300A4988601B
:10293000002008700848007850B90648006920F067
:102940000700044908610846006920F4A0500861A6
:1029500010BD000000200240700000200348006904
:1029600040F08000014908610020704700200240CB
:1029700010B500F0D1FE10BD0348006920F40070CE
:1029800001490861002070470020024007480069A3
:1029900000F4007028B9064804498860054888603A
:1029A00001E0012070470020FCE700000020024009
:1029B00023016745AB89EFCD704700002DE9FE4F3D
:1029C00005468B46174698460126002400200290B3
:1029D00000BF2448007E012802D10220BDE8FE8FFE
:1029E00001202049087600BF4CF25030FEF758FC19
:1029F000064686BB012D02D10120029006E0022D81
:102A000002D10220029001E00420029000241EE086
:102A10002201B946C24648465146FDF78DFC80B2B8
:102A20000190022000FB04B000900199FEF7E6FB44
:102A30004CF25030FEF734FC06460B48006920F09B
:102A400001000949086106B104E0601CC4B20298A3
:102A50008442DDDB00BF00BF00200249087600BFD2
:102A60003046BBE770000020002002402DE9F04115
:102A700006460F4614461D464FF0000812480069EE
:102A800040F4A05010490861104887600461456116
:102A9000012E05D103200D490870012048600CE08B
:102AA000022E05D10420094908700220486004E084
:102AB00005200649087004204860A1B23846FEF798
:102AC0009DFB4046BDE8F0810020024070000020E0
:102AD00000200849096901F0800151B10649054A01
:102AE0005160064951601146096901F0800101B148
:102AF000012070470020024023016745AB89EFCDDC
:102B0000044A126822F07F0240EA01031A43014B93
:102B10001A607047000001400348006820F0800000
:102B20000149086070470000000001400348006848
:102B300040F080000149086070470000000001403B
:102B40002DE9F04102460B4600208CE0012787402A
:102B500007EA030100296FD0464F4FEA900C57F85F
:102B60002C4087074FEA177C0F2707FA0CF73C40E9
:102B7000414FBA4201D1002719E0404FBA4201D17A
:102B8000012714E03E4FBA4201D102270FE03D4F2A
:102B9000BA4201D103270AE03B4FBA4201D10427D0
:102BA00005E03A4FBA4201D1052700E006274FEA77
:102BB000807C4FEA1C7C07FA0CF7A74232D1344FD5
:102BC0003F688F43DFF8C8C0CCF800700CF10407F1
:102BD0003F688F430CF1040CCCF800702C4F0C377D
:102BE0003F688F43DFF8A8C00CF10C0CCCF80070E4
:102BF000ACF104073F688F43ACF1040CCCF80070D3
:102C000087074FEA177C0F2707FA0CF4194F4FEA92
:102C1000900C57F82C70A743DFF858C04FEA900883
:102C20004CF82870FF2901D8174600E0171D3D46D3
:102C3000FF2902D8870003E014E0A0F10807BF00D5
:102C40003E462F684FF00F0C0CFA06FC27EA0C07E3
:102C50004FF0040C0CFA06FC47EA0C072F60D7680B
:102C60008F43D760401C23FA00F7002F7FF46EAF2C
:102C7000BDE8F0810800014000080140000C01405F
:102C8000001001400014014000180140001C0140E8
:102C9000000401407047000010B504460448006875
:102CA000204020B1024804602046FFF7F3FF10BD2A
:102CB000140401402DE9F847024600239C467BE1BD
:102CC0004FF0010808FA03F4D1F8008008EA040084
:102CD000A0427DD1DFF8F4A2D1F80480A8EB0A0964
:102CE000D0453AD014DCB8F1030F50D009DCB8F16C
:102CF000000F31D0B8F1010F1CD0B8F1020F49D14B
:102D000020E0B8F1110F18D0B8F1120F42D11EE037
:102D1000B9F5881F25D006DCB9F5803F20D0B9F57C
:102D2000801F37D11AE0B9F5001F18D0B9F5041F7C
:102D300030D117E0D1F80CC02DE0D1F80C8008F1AB
:102D4000040C28E0D1F80C8008F1080C23E0D1F83D
:102D50000C8008F10C0C1EE000BF00BF00BF00BFDC
:102D600000BF00BFD1F80880B8F1000F02D14FF0CA
:102D7000040C0BE0D1F80880B8F1010F03D14FF03B
:102D8000080C146102E04FF0080C546103E04FF0AE
:102D9000000C00E000BF00BFFF2801D8904601E012
:102DA00002F104084646FF2802D84FEA830803E0F0
:102DB000A3F108084FEA88084746D6F800804FF08C
:102DC0000F0909FA07F928EA09080CFA07F900E0DF
:102DD0007AE048EA0908C6F80080D1F8048008F0D3
:102DE0008058B8F1805F6FD100BFDFF8E481D8F878
:102DF000188048F00108DFF8D891C9F81880C84653
:102E0000D8F8188008F00108CDF8008000BF00BF96
:102E10004FEAB9384FEA930958F829504FEA8378B6
:102E20004FEA18794FF00F0808FA09F825EA080563
:102E3000DFF8A081424502D14FF0000824E0DFF81E
:102E40009881424502D14FF001081DE0DFF88C81E6
:102E5000424502D14FF0020816E0DFF88481424576
:102E600002D14FF003080FE0DFF87881424502D12C
:102E70004FF0040808E0DFF87081424502D14FF0BE
:102E8000050801E04FF006084FEA83794FEA197907
:102E900008FA09F848EA0505DFF850814FEA930976
:102EA00048F82950D1F8048008F48018B8F5801F3C
:102EB0000BD1DFF83C81D8F8008048EA0008DFF841
:102EC0003091C9F800800AE075E0DFF82481D8F875
:102ED000008028EA0008DFF81891C9F80080D1F8CE
:102EE000048008F40018B8F5001F0ED1DFF8008147
:102EF00008F10408D8F8008048EA0008DFF8F090EC
:102F000009F10409C9F800800DE0DFF8E48008F158
:102F10000408D8F8008028EA0008DFF8D49009F106
:102F20000409C9F80080D1F8048008F40038B8F525
:102F3000003F0ED1DFF8B880A8F10408D8F800806F
:102F400048EA0008DFF8A890A9F10409C9F8008050
:102F50000DE0DFF89C80A8F10408D8F8008028EA8A
:102F60000008DFF88C90A9F10409C9F80080D1F8B5
:102F7000048008F48038B8F5803F0ED1DFF8708007
:102F8000A8F10808D8F8008048EA0008DFF8609047
:102F9000A9F10809C9F800800DE0DFF85480A8F114
:102FA0000808D8F8008028EA0008DFF84490A9F162
:102FB0000809C9F800805B1CD1F8008028FA03F8E2
:102FC000B8F1000F7FF47CAEBDE8F8870000111067
:102FD0000010024000080140000C014000100140B8
:102FE0000014014000180140001C0140080001408D
:102FF0000804014008B502464FF480300090009864
:1030000008430090009890619161009890619069E8
:103010000090906900F4803008B1002008BD0120C4
:10302000FCE7024693680B400BB1012000E0002052
:10303000704710B5C26821EA020302EA010443EABC
:103040000443036110BD0AB1016101E00B04036197
:103050007047000002480068C0F30B007047000092
:10306000002004E000487047000A010101480068A0
:10307000000C7047002004E0014800687047000021
:103080000C00002001480078704700001400002068
:1030900001480068704700001000002001480068E7
:1030A00070470000E8F7FF1F014800687047000004
:1030B000ECF7FF1F0148006870470000F0F7FF1FA2
:1030C0000146002200BF91F84000012801D10220F2
:1030D0007047012081F8400000BF242081F84100A2
:1030E0000868C26822F00C0242F004020868C2605C
:1030F000202081F8410000BF002081F8400000BF7F
:1031000000BFE5E70146002200BF91F8400001281A
:1031100001D102207047012081F8400000BF242027
:1031200081F841000868C26822F00C0242F00802EF
:103130000868C260202081F8410000BF002081F8AB
:10314000400000BF00BFE5E710B504460CB9012000
:1031500010BD94F8410028B9002084F840002046B2
:1031600002F0F0F8242084F841002068C06820F4C0
:1031700000502168C860204602F068FD20680069A0
:1031800020F49040216808612068406920F0220006
:10319000216848612068406940F008002168486162
:1031A0002068C06840F400502168C8600020606456
:1031B000202084F8410084F842000020606300BFB2
:1031C000C6E700000348006803490978084401493C
:1031D000086070470C0000201400002010B508485B
:1031E000006840F0100006490860032000F080FAF3
:1031F0000F2000F007F800F09DF8002010BD00003F
:103200000020024070B504460E4800784FF47A71F1
:10321000B1FBF0F00C490968B1FBF0F5284601F06C
:10322000E1F908B1012070BD102C07D2002221461F
:10323000501E00F01FFA0548046001E00120F2E78B
:103240000020F0E7140000201800002010000020EB
:1032500070B504460D460CB9012070BD94F84100CC
:1032600028B9002084F84000204602F06BF82420A2
:1032700084F841002068C06820F400502168C860CC
:10328000204602F0E3FC2068006920F40060216819
:1032900008612068406920F02A00216848612068A0
:1032A000006940F48040216808612068006920F0CE
:1032B00020002168086120680069284321680861AE
:1032C0002068C06840F400502168C8600020606435
:1032D000202084F8410084F842000020606300BF91
:1032E000BBE7014600BF91F84000012801D1022050
:1032F0007047012081F8400000BF242081F8410080
:1033000000BF00BF0A680C3252E8002F42F00100F3
:103310000A680C3242E80003002BF3D100BF2020E2
:1033200081F8410000BF002081F8400000BF00BFCD
:10333000DEE7704708B500BF1148806940F0010022
:103340000F4988610846806900F00100009000BFC5
:1033500000BF00BF0846C06940F08050C861084601
:10336000C06900F08050009000BF00BF00BF054959
:10337000486820F0E06040F00070486000BF08BD81
:1033800000100240000001407047014600BF91F864
:103390004000012801D102207047012081F840003F
:1033A00000BF242081F8410000BF00BF0A680C3232
:1033B00052E8002F42F002000A680C3242E8000393
:1033C000002BF3D100BF202081F84100002048638A
:1033D00000BF81F8400000BF00BFDDE7014600BF2D
:1033E00091F84000012801D102207047012081F8A6
:1033F000400000BF242081F8410000BF00BF0A68E0
:103400000C3252E8002F22F002000A680C3242E827
:103410000003002BF3D100BF202081F841000020E1
:10342000486300BF81F8400000BF00BFDDE770B512
:1034300004460D4616460CB9012070BD94F84100B3
:1034400028B9002084F84000204601F07BFF2420AA
:1034500084F841002068C06820F400502168C860EA
:10346000204602F0F3FB2068006920F490402168B8
:1034700008612068406920F02A00216848612068BE
:10348000006920F00F002168086120680069284366
:10349000216808612068C06820F400602168C86065
:1034A0002068C06830432168C8602068C06840F464
:1034B00000502168C86000206064202084F841002A
:1034C00084F842000020606300BFB6E710B50146F3
:1034D0000846002807DB00F01F0301229A40034B37
:1034E000440943F8242000BF10BD000080E200E042
:1034F00010B501460846002817DB00F01F03012223
:103500009A400B4B440943F8242000BF00BF00BF82
:10351000BFF34F8F00BF00BF00BF00BF00BF00BFA1
:10352000BFF36F8F00BF00BF00BF00BF10BD000022
:1035300080E100E001460846002809DB00F01F0397
:1035400001229A4043099B0003F1E023C3F80021C4
:1035500000BF704710B50146084600280DDB084A39
:10356000430952F8232000F01F040123A3401A400E
:103570000AB1012202E0002200E00022104610BD44
:1035800000E300E010B50146084600280DDB084ABC
:10359000430952F8232000F01F040123A3401A40DE
:1035A0000AB1012202E0002200E00022104610BD14
:1035B00000E200E02DE9F04304462046002803DB4A
:1035C0001F4F3F5C3F0907E01E4F00F00F0CACF1AE
:1035D000040C17F80C703F093D460E4606F0070034
:1035E000C0F10708B8F1040F02D94FF0040801E058
:1035F000C0F10708C44600F10408B8F1070F02D271
:103600004FF0000801E0A0F10308474625FA07F84B
:103610004FF0010909FA0CF9A9F1010908EA0908B2
:10362000C2F800804FF0010808FA07F8A8F1010875
:1036300008EA0508C3F8008000BFBDE8F083000079
:1036400000E400E018ED00E010B502F089FC10BDC8
:1036500010B501460846002807DB00F01F030122D1
:103660009A40034B440943F8242000BF10BD0000DA
:1036700000E200E02DE9F05F80460D461646002787
:1036800002F06EFC074639462A46334601F0070031
:10369000C0F1070ABAF1040F02D94FF0040A01E0A1
:1036A000C0F1070AD14600F1040ABAF1070F02D2AD
:1036B0004FF0000A01E0A0F1030AD4464FF0010ADE
:1036C0000AFA09FAAAF1010A0AEA020A0AFA0CFA43
:1036D0004FF0010B0BFA0CFBABF1010B0BEA030BE8
:1036E0004AEA0B042146404602F042FCBDE8F09F46
:1036F00000BF00F00702064B19684FF6FF031940A0
:10370000044B0B4343EA0221014B196000BF704791
:103710000CED00E00000FA0500BF00BF00BF00BFD5
:1037200000BFBFF34F8F00BF00BF00BF0948006854
:1037300000F4E06008490843001D0649086000BF26
:1037400000BF00BFBFF34F8F00BF00BF00BF00BF6F
:1037500000BFFDE70CED00E00000FA052A4909680A
:1037600021F0E00102681143274A116027490968E6
:1037700021F48031254A1160111F096821F480313C
:10378000121F116021490831096821F480311F4A54
:1037900008321160111F096821F48031121F116075
:1037A000416801F48031B1F5803F07D11749091F05
:1037B000096841F48031154A121F1160416801F413
:1037C0000031B1F5003F05D11049096841F480315D
:1037D0000E4A1160017901F0010139B10B49091D4F
:1037E000096841F48031094A121D1160017901F024
:1037F0000201022907D105490831096841F48031E5
:10380000024A083211607047007000400404014011
:103810000548006940F08050034908610846006986
:1038200020F08050086170470010024000200149DC
:103830000862704700000E4200200149086170478D
:1038400000000E420348006820F0100001490860A3
:103850007047000010ED00E00348006820F002000F
:10386000014908607047000010ED00E0002190FA67
:10387000A0F2B2FA82F2034B03EB8202C2F880108C
:103880007047000000000E420120014908627047A5
:1038900000000E42012001490861704700000E42FD
:1038A0000348006840F010000149086070470000BC
:1038B00010ED00E00348006840F002000149086094
:1038C0007047000010ED00E0012190FAA0F2B2FA7A
:1038D00082F2034B03EB8202C2F8801070470000B3
:1038E00000000E42064A126822F00402044B1A60DD
:1038F000012901D130BF02E040BF20BF20BF704787
:1039000010ED00E00748006840F00200054908603B
:103910000548006840F004000349086000BF00BF8C
:1039200030BF70470070004010ED00E070B50446F5
:103930000D461148006820F002000F490860084653
:10394000006820F00100204308600C48006840F047
:1039500004000A490860012D01D130BF04E040BFD6
:1039600001F0D6FE01F0D4FE0448006820F0040007
:103970000249086070BD00000070004010ED00E0DA
:103980007047000010B50648006800F4803028B188
:10399000FFF7F6FF4FF480300149086010BD0000CA
:1039A00014040140002101220260124A126A02F44A
:1039B00040714160026842F0020202600D4A5268A2
:1039C00002F440428260026842F004020260002277
:1039D000C260026842F008020260002202610268CE
:1039E00042F010020260034A526802F4800242610F
:1039F00070470000001002402DE9F04706464FF0E6
:103A00000008002500270024A146042E37D004DC3E
:103A1000012E3CD0022E6CD160E0082E33D0102E47
:103A200067D136484468006800F0807008B33448B5
:103A3000C4F38341475C04F4803078B12F48406878
:103A4000C0F340402F4911F8008004F4803040B1A9
:103A50002D48B0FBF8F000FB07F502E02B4807FB10
:103A600000F52648406800F48000B0F5800F01D1D1
:103A7000A94603E068000321B0FBF1F93AE000F049
:103A8000E7FA814636E000F0E3FA814632E01B486F
:103A9000046A04F44070B0F5807F05D104F00200A0
:103AA00010B14FF4004918E004F44070B0F5007F05
:103AB00007D11248406A00F0020010B149F64049AF
:103AC0000BE004F44070B0F5407F06D10B4800686D
:103AD00000F4003008B14FF224490BE000F0A8FADE
:103AE00006494968C1F38131491C4900B0FBF1F92D
:103AF00000E000BF00BF4846BDE8F087001002406C
:103B0000976C0008A76C000800127A0000093D00BD
:103B1000F8B5044600260025207800F001000028B2
:103B20006BD000274348C06900F0805070B900BFD7
:103B30004048C06940F080503E49C8610846C069AD
:103B400000F08050009000BF00BF01273A48006895
:103B500000F48070B0B93848006840F4807036498D
:103B60000860FFF789FA064606E0FFF785FA801B32
:103B7000642801D90320F8BD2F48006800F4807044
:103B80000028F2D02B48006A00F440752DB3A088BD
:103B900000F44070A84220D02648006A20F4407506
:103BA000012026490860002008602248056205F0CF
:103BB000010090B1FFF760FA064608E0FFF75CFAF3
:103BC000801B41F28831884201D90320D3E719488C
:103BD000006A00F002000028F0D01648006A20F4C5
:103BE00040706168084313490862012F04D10846F8
:103BF000C06920F08050C86100BF207800F002004A
:103C0000022807D10B48406820F44040A1680843CF
:103C100008494860207800F01000102807D10548B6
:103C2000406820F480006169084302494860002030
:103C3000A1E7000000100240007000404004424232
:103C40007047000070B504460D460CB9012070BDE8
:103C50005A48006800F00700A8420ED25748006892
:103C600020F007002843554908600846006800F026
:103C70000700A84201D00120E9E7207800F0020007
:103C800002281DD1207800F00400042805D14C48FA
:103C9000406840F4E0604A494860207800F008003D
:103CA000082805D14648406840F4605044494860BF
:103CB0004348406820F0F000A1680843404948604C
:103CC000207800F0010078B36068012806D13C48F4
:103CD000006800F4003090B90120B8E7606802285D
:103CE00006D13748006800F0007040B90120AEE707
:103CF0003348006800F0020008B90120A7E7304807
:103D0000406820F00300616808432D494860FFF7D0
:103D1000B3F9064609E0FFF7AFF9801B41F288319D
:103D2000884202D9032092E707E02548406800F066
:103D30000C006168B0EB810FEDD12048006800F005
:103D40000700A8420ED91D48006820F0070028434C
:103D50001A4908600846006800F00700A84201D030
:103D6000012074E7207800F00400042807D11448EB
:103D7000406820F4E060E168084311494860207819
:103D800000F00800082808D10D48406820F4605071
:103D9000216940EAC1000A49486000F059F9084920
:103DA0004968C1F30311074A515CC84006490860DD
:103DB00006480068FFF726FA002048E70020024086
:103DC00000100240A96C000818000020100000201C
:103DD00010B5FFF751F904463D48006840F0010076
:103DE0003B49086006E0FFF747F9001B022801D9AC
:103DF000032010BD3648006800F002000028F2D011
:103E00003348006820F0F80040F080003049086036
:103E1000FFF732F9044600202D49486008E0FFF71B
:103E20002BF9001B41F28831884201D90320E0E7D9
:103E30002748406800F00C000028F0D125482649AA
:103E4000086026480068FFF7DDF908B10120D0E7D7
:103E5000FFF712F904461E48006820F080701C49E4
:103E6000086006E0FFF708F9001B022801D90320CB
:103E7000BFE71748006800F000700028F2D114492D
:103E80004860FFF7F9F804461148006820F4102054
:103E90000F49086006E0FFF7EFF8001B642801D91E
:103EA0000320A6E70A48006800F400300028F2D199
:103EB0000748006820F48020054908600846406AE9
:103EC00040F0807048620020886000BF91E70000E9
:103ED0000010024000127A0018000020100000209C
:103EE00000200149C8647047000042420120014996
:103EF000C8647047000042420F2202600D4A5268B7
:103F000002F0030242600B4A526802F0F002826043
:103F1000084A526802F4E062C260064A526802F43B
:103F20006052D2080261044A126802F007020A6075
:103F30007047000000100240002002400148006865
:103F400070470000180000200F2101602F49096808
:103F500001F48021B1F5802F03D14FF4A0214160FD
:103F60000CE02A49096801F48031B1F5803F03D1A2
:103F70004FF48031416001E00021416023494968EC
:103F800001F4003181602149096801F0010111B19A
:103F90000121016101E0002101611C490968C1F3AF
:103FA000C40141611949096A01F00401042902D1DF
:103FB0000521C16009E01549096A01F0010111B14B
:103FC0000121C16001E00021C1601049496A01F08E
:103FD000010111B10121816101E0002181610B49E1
:103FE000096801F08071B1F1807F02D10221C161C5
:103FF00001E00121C1610549496801F48032026292
:104000000249496801F47012426270470010024090
:1040100000B5FFF793FF04494968C1F30221034A41
:10402000515CC84000BD000000100240B96C00089F
:1040300000B5FFF783FF04494968C1F3C221034A71
:10404000515CC84000BD000000100240B96C00087F
:1040500070B500210022002400230020134D696860
:1040600001F00C05F5B1042D02D0082D19D101E0A5
:104070000F4819E00F4DC1F38346AB5D01F4803565
:1040800055B10A4D6D68C5F340450B4E725D084D44
:104090005D43B5FBF2F402E0084D03FB05F4204656
:1040A00002E000BF024800BF00BF70BD0010024028
:1040B00000127A00856C0008956C000800093D002C
:1040C00070B586B005460C46164600200290039057
:1040D0000490059002200390032005900020049096
:1040E0004FF48070029000BF0C48806940F00400DB
:1040F0000A4988610846806900F00400019000BF09
:1041000000BF02A90648FEF7D5FD0448406820F02C
:10411000E06020430149486006B070BD00100240D5
:104120000008014010B50648806800F08000802833
:1041300004D1FFF785FD80200149887210BD000081
:1041400000100240F8B504460CB90120F8BD2078F3
:1041500000F00100002878D0F848406800F00C001A
:1041600004280CD0F548406800F00C00082811D154
:10417000F248406800F48030B0F5803F0AD1EF4843
:10418000006800F4003000285FD0606800285CD12F
:104190000120DBE700BF6068B0F5803F06D1E7484B
:1041A000006840F48030E549086028E0606858B94C
:1041B000E248006820F48030E04908600846006862
:1041C00020F4802008601AE06068B0F5A02F0BD1C1
:1041D000DA48006840F48020D84908600846006842
:1041E00040F4803008600AE0D448006820F4803051
:1041F000D24908600846006820F48020086000BFAB
:10420000606888B1FEF738FF054606E0FEF734FF28
:10421000401B642801D9032098E7C848006800F4CF
:1042200000300028F2D010E0FEF726FF054606E039
:10423000FEF722FF401B642801D9032086E7BF4810
:10424000006800F400300028F2D1207800F002006D
:10425000022857D1B948406800F00C0050B1B74867
:10426000406800F00C00082818D1B448406800F4F9
:10427000803098B9B148006800F0020020B1206990
:10428000012801D0012061E7AC48006820F0F80067
:10429000616940EAC100A949086033E02069E8B1DA
:1042A0000120A7490860FEF7E7FE054606E0FEF795
:1042B000E3FE401B022801D9032047E79F4800681E
:1042C00000F002000028F2D09C48006820F0F800BE
:1042D000616940EAC1009949086013E000209849EB
:1042E0000860FEF7C9FE054606E0FEF7C5FE401B66
:1042F000022801D9032029E79048006800F0020055
:104300000028F2D1207800F0080008282DD1A069FB
:10431000B8B101208B490860FEF7AEFE054606E005
:10432000FEF7AAFE401B022801D903200EE78348AE
:10433000406A00F002000028F2D0012001F0ECF900
:1043400013E000207F490860FEF796FE054606E070
:10435000FEF792FE401B022801D90320F6E67748BB
:10436000406A00F002000028F2D1207800F004003A
:10437000042873D100277148C06900F0805070B9DB
:1043800000BF6E48C06940F080506C49C861084663
:10439000C06900F08050009000BF00BF01276A484C
:1043A000006800F48070B0B96748006840F480701D
:1043B00065490860FEF760FE054606E0FEF75CFE14
:1043C000401B642801D90320C0E65F48006800F460
:1043D00080700028F2D000BFE068012806D157485D
:1043E000006A40F001005549086227E0E06858B9CA
:1043F0005248006A20F00100504908620846006AED
:1044000020F00400086219E0E06805280BD14B4851
:10441000006A40F00400494908620846006A40F01A
:10442000010008620AE04548006A20F001004349A3
:1044300008620846006A20F00400086200BFE068D5
:10444000A0B1FEF719FE054609E0FEF715FE401B78
:1044500041F28831884202D9032077E622E03748CA
:10446000006A00F002000028EFD012E0FEF704FE20
:10447000054608E0FEF700FE401B41F28831884205
:1044800001D9032062E62D48006A00F002000028EE
:10449000F0D1012F05D12948C06920F0805027496B
:1044A000C86100BFE069C8B32448406800F00C0050
:1044B000082860D0E069022848D100202049086619
:1044C000FEF7DAFD054606E0FEF7D6FD401B0228A2
:1044D00001D903203AE61948006800F0007000286E
:1044E000F2D1206AB0F5803F07D11448406820F42B
:1044F0000030A168084311494860D4E90801084325
:104500000E49496821F4741108430C4948600120A0
:104510000B490866FEF7B0FD054607E03DE0FEF7F3
:10452000ABFD401B022801D903200FE603480068B9
:1045300000F000700028F2D02FE0000000100240D0
:1045400000004242800442420070004000201449B2
:104550000866FEF791FD054606E0FEF78DFD401B5F
:10456000022801D90320F1E50E48006800F0007030
:104570000028F2D111E0E069012800D1E6E5094800
:10458000466806F48031206A814204D106F4701135
:10459000606A814201D00120D8E50020D6E5000004
:1045A00000004242001002404FF0E020006940F05D
:1045B00002004FF0E02108617047042808D14FF055
:1045C000E021096941F004014FF0E022116107E0A8
:1045D0004FF0E021096921F004014FF0E022116160
:1045E0007047704770B504462546681EB0F1807F5D
:1045F00001D301200FE0681E4FF0E02148610F2138
:104600004FF0FF3001F0B4FC00204FF0E021886152
:1046100007200861002070BD10B5FFF7E2FF10BD54
:1046200070B50446002508480078A0420AD0064824
:104630000678047005480068FEF7E4FD05460DB1F4
:1046400001480670284670BD1400002010000020AC
:104650004FF0E020006920F002004FF0E0210861F7
:1046600070470146486B70472DE9F84F04460F46E6
:1046700090461D46DDF828A094F84200202878D105
:1046800017B1B8F1000F02D10120BDE8F88F00206A
:104690006064222084F842000120206300206063CF
:1046A000FEF7EAFC8346A4F82C80A4F82E80A068CC
:1046B000B0F5805F04D1206910B90026B94602E048
:1046C0003E464FF000090020288053E02068006833
:1046D00000F01000102813D100BF002000902068C7
:1046E0000068009020684068009000BF00BF2888E4
:1046F00030B102206063202084F842000020C4E72B
:104700002068006800F02000202821D146B92068E8
:104710004068C0F30800A9F8000009F1020911E09F
:10472000A068B0F5805F03D0A06828B9206918B9E7
:1047300020684068307004E02068406800F07F0026
:104740003070761C2888401C2880E08D401EE08553
:104750000AF1010070B1FEF78FFCA0EB0B00504591
:1047600002D8BAF1000F05D1202084F842000320BE
:104770008BE70BE0E08D0028A8D1A08DE18D401AD9
:104780002880202084F8420000207EE702207CE779
:10479000F8B504460D46164694F8420020282DD15F
:1047A00005B10EB90120F8BD01202063002060632F
:1047B00032462946204601F0C7FA0746206B0128F9
:1047C00019D100BF00200090206800680090206888
:1047D0004068009000BF00BF00BF00BF21680C31DF
:1047E00051E8001F41F0100021680C3141E800023F
:1047F000002AF3D100E001273846D4E70220D2E7AF
:10480000F8B504460E46174694F8420020282ED1EB
:1048100006B10FB90120F8BD0120206300206063BC
:104820003A463146204601F0F3FA0546EDB9206BD1
:10483000012819D100BF0020009020680068009076
:1048400020684068009000BF00BF00BF00BF216823
:104850000C3151E8001F41F0100021680C3141E893
:104860000002002AF3D100E001252846D3E7022008
:10487000D1E7704710B5044600BF00BF21680C3176
:1048800051E8001F21F4F07021680C3141E800026A
:10489000002AF3D100BF00BF00BF2168143151E8E6
:1048A000001F21F001002168143141E80002002AB4
:1048B000F3D100BF206B01280ED100BF00BF2168DB
:1048C0000C3151E8001F21F0100021680C3141E843
:1048D0000002002AF3D100BF2068406900F0800088
:1048E00000B300BF00BF2168143151E8001F21F060
:1048F00080002168143141E80002002AF3D100BF92
:10490000A06B78B10020A16B4863A06BFCF73CFD65
:1049100040B1A06BFCF77EFE202803D1102060641C
:10492000032010BD2068406900F0400000B300BFC4
:1049300000BF2168143151E8001F21F040002168B8
:10494000143141E80002002AF3D100BFE06B78B1D6
:104950000020E16B4863E06BFCF716FD40B1E06BB3
:10496000FCF758FE202803D1102060640320D8E70C
:104970000020E084E0856064202084F8420084F810
:1049800041000020206300BFCBE7704710B504460C
:1049900000BF00BF21680C3151E8001F21F4907066
:1049A00021680C3141E80002002AF3D100BF00BFAA
:1049B00000BF2168143151E8001F21F00100216877
:1049C000143141E80002002AF3D100BF206B012816
:1049D0000ED100BF00BF21680C3151E8001F21F04B
:1049E000100021680C3141E80002002AF3D100BF19
:1049F0002068406900F0400000B300BF00BF21689C
:104A0000143151E8001F21F040002168143141E8C1
:104A10000002002AF3D100BFE06B78B10020E16B07
:104A20004863E06BFCF7B0FC40B1E06BFCF7F2FDD3
:104A3000202803D110206064032010BD0020E085F1
:104A4000202084F842000020206300BFF5E7704773
:104A500010B5044600BF00BF21680C3151E8001FAB
:104A600021F4907021680C3141E80002002AF3D152
:104A700000BF00BF00BF2168143151E8001F21F0C2
:104A800001002168143141E80002002AF3D100BF7F
:104A9000206B01280ED100BF00BF21680C3151E806
:104AA000001F21F0100021680C3141E80002002AAB
:104AB000F3D100BF2068406900F0400030B300BF70
:104AC00000BF2168143151E8001F21F04000216827
:104AD000143141E80002002AF3D100BFE06B50B16D
:104AE0001048E16B4863E06BFCF77AFCC0B1E06B07
:104AF000416B884714E00020E085202084F84200C4
:104B0000002020632046FFF7A2FF09E00020E08597
:104B1000202084F84200002020632046FFF797FF02
:104B2000002010BDCB59000810B5044600BF00BFDF
:104B300021680C3151E8001F21F0C00021680C31C0
:104B400041E80002002AF3D100BF2068406900F06C
:104B5000800000B300BF00BF2168143151E8001F7E
:104B600021F080002168143141E80002002AF3D1CD
:104B700000BFA06B78B10020A16B4863A06BFCF76D
:104B800003FC40B1A06BFCF745FD202803D11020A9
:104B90006064032010BD0020E084202084F84100E0
:104BA0000020F7E77047000010B5044600BF00BFC3
:104BB00021680C3151E8001F21F0C00021680C3140
:104BC00041E80002002AF3D100BF2068406900F0EC
:104BD000800020B300BF00BF2168143151E8001FDE
:104BE00021F080002168143141E80002002AF3D14D
:104BF00000BFA06B50B10F48A16B4863A06BFCF7DE
:104C0000EFFBA0B1A06B416B884710E00020E0846F
:104C1000202084F841002046FFF7C4FF07E0002071
:104C2000E084202084F841002046FFF7BBFF0020ED
:104C300010BD0000855A000870B50446012500BF6C
:104C400000BF21680C3151E8001F21F4F070216889
:104C50000C3141E80002002AF3D100BF00BF00BFC1
:104C60002168143151E8001F21F00100216814313E
:104C700041E80002002AF3D100BF206B01280ED1C9
:104C800000BF00BF21680C3151E8001F21F0100067
:104C900021680C3141E80002002AF3D100BFA06B6B
:104CA00058B12068406900F0800018B13248A16B0B
:104CB000486302E00020A16B4863E06B58B12068B4
:104CC000406900F0400018B12C48E16B486302E0F5
:104CD0000020E16B48632068406900F08000C8B1A3
:104CE00000BF00BF2168143151E8001F21F080008F
:104CF0002168143141E80002002AF3D100BFA06B03
:104D000040B1A06BFCF76CFB18B10020A16B4863AD
:104D100000E000252068406900F04000D0B100BFED
:104D200000BF2168143151E8001F21F040002168C4
:104D3000143141E80002002AF3D100BFE06B48B112
:104D4000E06BFCF74DFB20B10020E16B48630125CF
:104D500000E00025012D0DD10020E084E085606495
:104D6000202084F8410084F842000020206320467F
:104D7000FFF70BFE002070BD3F5A00086F59000876
:104D800010B50146002208684069C0F3C01291F8CE
:104D9000410021280FD172B100BF00BF0B6814334E
:104DA00053E8003F23F080000B68143343E800040D
:104DB000002CF3D100BF08684069C0F3801291F85D
:104DC000420022282DD162B300BF00BF0B680C3314
:104DD00053E8003F23F480700B680C3343E8000471
:104DE000002CF3D100BF00BF00BF0B68143353E8A1
:104DF000003F23F001000B68143343E80004002C4B
:104E0000F3D100BF00BF00BF0B68143353E8003F6D
:104E100023F040000B68143343E80004002CF3D166
:104E200000BF002010BD08B5014691F841002128BF
:104E30000ED100BF00BF0A68143252E8002F42F0C2
:104E400080000A68143242E80003002BF3D100BF4F
:104E500091F84200222839D100BF00200090086854
:104E60000068009008684068009000BF00BF0869B3
:104E700070B100BF00BF0A680C3252E8002F42F444
:104E800080700A680C3242E80003002BF3D100BFA7
:104E900000BF00BF0A68143252E8002F42F0010040
:104EA0000A68143242E80003002BF3D100BF00BFB0
:104EB00000BF0A68143252E8002F42F040000A682E
:104EC000143242E80003002BF3D100BF002008BDDC
:104ED00070B50446002520684069C0F3C01594F8F9
:104EE0004100212817D1B5B100BF00BF216814319E
:104EF00051E8001F21F080002168143141E80002D0
:104F0000002AF3D100BFA06B10B1A06BFCF73CFAF4
:104F1000204600F009FE20684069C0F3801594F82F
:104F20004200222817D1B5B100BF00BF216814315B
:104F300051E8001F21F040002168143141E80002CF
:104F4000002AF3D100BFE06B10B1E06BFCF71CFA54
:104F5000204600F0A3FD002070BD10B504460CB93A
:104F6000012010BD242084F841002068C06820F48E
:104F700000502168C860204600F0CAF90020606433
:104F800084F8410084F842002063606300BF84F825
:104F9000400000BF00BFE4E770470146486C70471F
:104FA00001460022002391F8412091F8423042EA64
:104FB000030070472DE9F84F044620680568206813
:104FC000C668206847694FF00009CA4605F00F0916
:104FD000B9F1000F0AD105F0200038B106F0200029
:104FE00020B1204600F0B3FDBDE8F88FB9F1000F05
:104FF0007BD007F0010018B906F49070002874D037
:1050000005F0010030B106F4807018B1606C40F01A
:105010000100606405F0040030B107F0010018B130
:10502000606C40F00200606405F0020030B107F0EF
:10503000010018B1606C40F00400606405F00800E5
:1050400048B106F0200010B907F0010018B1606CFB
:1050500040F008006064606C002845D005F0200036
:1050600028B106F0200010B1204600F070FD206845
:105070004069C0F3801A606C00F0080010B9BAF102
:10508000000F2CD0204600F009FD2068406900F098
:10509000400000B300BF00BF2168143151E8001F79
:1050A00021F040002168143141E80002002AF3D1C8
:1050B00000BFE06B50B17748E16B4863E06BFCF7F1
:1050C0008FF988B1E06B416B88470DE02046FFF710
:1050D00063FF09E009E02046FFF75EFF04E0204699
:1050E000FFF75AFF002060647EE7206B012877D12C
:1050F00005F01000002873D006F010000028FAD048
:1051000000BF002000902068006800902068406880
:10511000009000BF00BF2068406900F040000028F8
:105120005FD0E06B006840681FFA80F8B8F1000FAC
:1051300055D0A08D404552DDA4F82E80E06B8069EB
:10514000202843D000BF00BF21680C3151E8001F68
:1051500021F4807021680C3141E80002002AF3D16B
:1051600000BF00BF00BF2168143151E8001F21F0CB
:1051700001002168143141E80002002AF3D100BF88
:1051800000BF00BF2168143151E8001F21F040002A
:105190002168143141E80002002AF3D100BF202029
:1051A00084F842000020206300BF00BF21680C315A
:1051B00051E8001F21F0100021680C3141E8000285
:1051C000002AF3D100BFE06BFCF7DEF80220606339
:1051D000A08DE28D801A81B22046FFF74AFB03E7DB
:1051E00042E0A08DE18D401A1FFA80F8E08DD0B327
:1051F000B8F1000F37D000BF00BF21680C3151E873
:10520000001F21F4907021680C3141E80002002A4F
:10521000F3D100BF00BF00BF2168143151E8001F67
:1052200021F001002168143141E80002002AF3D185
:1052300000BF202084F842000020206300BF00BF90
:1052400021680C3151E8001F21F0100021680C3159
:1052500041E80002002AF3D100BF0220606341460A
:105260002046FFF706FBBFE605F0800030B106F0F0
:10527000800018B1204600F0EBFDB5E605F04000D7
:1052800030B106F0400018B1204600F03DFCABE61E
:1052900000BFA9E65758000810B504460CB9012014
:1052A00010BDA06900B100E000BF94F8410028B92A
:1052B000002084F84000204600F044F8242084F8C0
:1052C00041002068C06820F400502168C860204672
:1052D00000F0BCFC2068006920F49040216808615F
:1052E0002068406920F02A00216848612068C06871
:1052F00040F400502168C86000206064202084F8D9
:10530000410084F842000020606300BFC8E700004D
:1053100010B504460749206888420AD106488069CA
:1053200020F48040044988614FF4C0610348FDF7D0
:1053300007FC10BD00380140001002400008014089
:105340007047000010B586B004460020029003901C
:10535000049005901A49206888422ED100BF194850
:10536000806940F48040174988610846806900F4EC
:105370008040019000BF00BF00BF0846806940F038
:10538000040088610846806900F00400019000BFB5
:1053900000BF48150290022003900320059002A947
:1053A0000948FDF787FC4FF48060029000200390CD
:1053B000049002A90448FDF77DFC06B010BD000072
:1053C00000380140001002400008014070472DE9FC
:1053D000F84F04460E46174699464FF0000A94F8D7
:1053E0004200202852D106B117B90120BDE8F88F3C
:1053F00000206064222084F8420000202063FDF732
:105400003BFE8246A785E785A068B0F5805F04D1A2
:10541000206910B90025B04602E035464FF000087B
:105420002CE05346002220212046CDF8009000F0C9
:105430003FFD20B1202084F842000320D6E745B983
:1054400020684068C0F30800A8F8000008F10208CE
:1054500011E0A068B0F5805F03D0A06828B920698A
:1054600018B920684068287004E02068406800F09F
:105470007F0028706D1CE08D401EE085E08D0028C7
:10548000CFD1202084F842000020AFE70220ADE712
:1054900070B504460D46164694F8420020280BD1FC
:1054A00005B10EB9012070BD0020206332462946A7
:1054B000204600F049FCF6E70220F4E770B5044608
:1054C0000D46164694F8420020280BD105B10EB9BE
:1054D000012070BD0020206332462946204600F09E
:1054E00097FCF6E70220F4E7704770472DE9F84F84
:1054F00004460E46174699464FF0000A94F84100BC
:10550000202850D106B117B90120BDE8F88F00203E
:105510006064212084F84100FDF7AEFD8246A78437
:10552000E784A068B0F5805F04D1206910B9002538
:10553000B04602E035464FF000081EE05346002218
:1055400080212046CDF8009000F0B2FC20B1202050
:1055500084F841000320D8E745B9B8F80000C0F34B
:1055600008002168486008F1020803E028782168F3
:1055700048606D1CE08C401EE084E08C0028DDD18A
:105580005346002240212046CDF8009000F090FCC8
:1055900020B1202084F841000320B6E7202084F8C1
:1055A00041000020B1E70220AFE70000F7B5044654
:1055B000154694F84100202836D1019800B10DB964
:1055C0000120FEBD01982062A584E584002060646E
:1055D000212084F841001548A16B88621448A16B12
:1055E000C8621448A16B08630020A16B486301AE38
:1055F00023681A1D31682B46A06BFCF7B5FD6FF0D0
:1056000040002168086000BF00BF2168143151E8E4
:10561000001F41F080002168143141E80002002A97
:10562000F3D100BF0020CCE70220CAE7E759000809
:10563000775A00086B58000810B5034693F84100EC
:10564000202813D101B10AB9012010BD19629A8432
:10565000DA8400205864212083F841001868C0686B
:1056600040F080001C68E0600020EEE70220ECE7DC
:105670007047704700BFFEE708B500BF1348806958
:1056800040F01000114988610846806900F0100060
:10569000009000BF00BF00BF0846806940F02000B6
:1056A00088610846806900F02000009000BF00BFBC
:1056B00000BF0846806940F00400886108468069A0
:1056C00000F00400009000BF00BF08BD00100240C1
:1056D00010B50B480B4908604FF4E13048600021D9
:1056E00008488160C16001610C2141610021816134
:1056F000C161FFF7D1FD08B1FBF7C1FB10BD000090
:10570000003801402800002000BFFEE700BFFEE790
:1057100020BF00BF7047704708B508490968C9082D
:105720004FF47A72B1FBF2F14143009100BF00BF28
:1057300000994A1E00920029F9D108BD18000020E6
:10574000704710B5FDF73EFD10BD00B58FB02821A4
:1057500005A8FAF708FE14216846FAF704FE0120AE
:105760000590000406900020079001200990022077
:105770000C90C1030D914FF4E0110E9105A8FEF7B6
:10578000E1FC08B1FBF77BFB0F20009002200190A9
:10579000002002904FF480600390002004900221CA
:1057A0006846FEF74FFA08B1FBF769FB0FB000BD82
:1057B00010B5002100200022214B5B6803F00C0192
:1057C00021B1042906D0082928D107E01D4B1E4C21
:1057D000236027E01B4B1C4C236023E0184B5B68C5
:1057E00003F47010164B5B6803F48032022303EB62
:1057F000904022B9154B4343134C23600DE0104BEE
:105800005B6803F4003323B1104B43430E4C236019
:1058100003E00C4B43430C4C236003E0094B0A4C60
:10582000236000BF00BF064B5B68C3F30313084C43
:10583000E15C054B1B68CB40034C236010BD0000AE
:105840000010024000127A001800002000093D00FC
:10585000A96C0008704770B505466C6A0020E085A9
:10586000E0842046FFF798FB70BD70B50646002522
:10587000746A20684069C0F3C01594F8410021287B
:1058800005D125B10020E084204600F04DF92068C4
:105890004069C0F3801594F84200222805D125B153
:1058A0000020E085204600F0F9F8606C40F0100020
:1058B00060642046FFF770FB70BD70B505466C6AEA
:1058C0002868006800F02000002842D1E08500BF71
:1058D00000BF21680C3151E8001F21F4807021685D
:1058E0000C3141E80002002AF3D100BF00BF00BF25
:1058F0002168143151E8001F21F0010021681431A2
:1059000041E80002002AF3D100BF00BF00BF2168B8
:10591000143151E8001F21F040002168143141E8A2
:105920000002002AF3D100BF202084F84200206B3F
:1059300001280ED100BF00BF21680C3151E8001FC3
:1059400021F0100021680C3141E80002002AF3D157
:1059500000BF00206063206B012804D1A18D204688
:10596000FEF787FF02E02046FFF7BEFD70BD70B571
:1059700005466C6A0020E16B4863A06B18B1A06B10
:10598000406B00B170BD0020E084E08560642020A1
:1059900084F8410084F84200002020632046FEF78E
:1059A000F4FF00BFEEE770B505466C6A0120606346
:1059B000206B012805D1A08D41082046FEF759FF34
:1059C00002E02046FFF791FD70BD70B505466C6A98
:1059D0000020E085202084F842000020206320463B
:1059E000FFF735F870BD70B505466C6A2868006829
:1059F00000F02000F8B90020E08400BF00BF21685B
:105A0000143151E8001F21F080002168143141E871
:105A10000002002AF3D100BF00BF00BF21680C3193
:105A200051E8001F41F0400021680C3141E80002BC
:105A3000002AF3D102E02046FFF71AFE70BD70B5D0
:105A400005466C6A0020A16B4863E06B18B1E06BFF
:105A5000406B00B170BD0020E084E08560642020D0
:105A600084F8410084F84200002020632046FEF7BD
:105A70008CFF00BFEEE770B50446656A2846FFF765
:105A8000F8FD70BD70B505466C6A0020E0842020EA
:105A900084F841002046FFF785F870BD00BF00BFC5
:105AA00002680C3252E8002F22F4907102680C3226
:105AB00042E80013002BF3D100BF00BF00BF026813
:105AC000143252E8002F22F001010268143242E839
:105AD0000013002BF3D100BF016B01290ED100BFD1
